{
    "_format": "hh-sol-artifact-1",
    "contractName": "MVLP",
    "sourceName": "contracts/mvx/MVLP.sol",
    "abi": [
        {
            "inputs": [],
            "stateMutability": "nonpayable",
            "type": "constructor"
        },
        {
            "anonymous": false,
            "inputs": [
                {
                    "indexed": true,
                    "internalType": "address",
                    "name": "owner",
                    "type": "address"
                },
                {
                    "indexed": true,
                    "internalType": "address",
                    "name": "spender",
                    "type": "address"
                },
                {
                    "indexed": false,
                    "internalType": "uint256",
                    "name": "value",
                    "type": "uint256"
                }
            ],
            "name": "Approval",
            "type": "event"
        },
        {
            "anonymous": false,
            "inputs": [
                {
                    "indexed": true,
                    "internalType": "address",
                    "name": "from",
                    "type": "address"
                },
                {
                    "indexed": true,
                    "internalType": "address",
                    "name": "to",
                    "type": "address"
                },
                {
                    "indexed": false,
                    "internalType": "uint256",
                    "name": "value",
                    "type": "uint256"
                }
            ],
            "name": "Transfer",
            "type": "event"
        },
        {
            "inputs": [
                {
                    "internalType": "address",
                    "name": "_account",
                    "type": "address"
                }
            ],
            "name": "addAdmin",
            "outputs": [],
            "stateMutability": "nonpayable",
            "type": "function"
        },
        {
            "inputs": [
                {
                    "internalType": "address",
                    "name": "_account",
                    "type": "address"
                }
            ],
            "name": "addNonStakingAccount",
            "outputs": [],
            "stateMutability": "nonpayable",
            "type": "function"
        },
        {
            "inputs": [
                {
                    "internalType": "address",
                    "name": "",
                    "type": "address"
                }
            ],
            "name": "admins",
            "outputs": [
                {
                    "internalType": "bool",
                    "name": "",
                    "type": "bool"
                }
            ],
            "stateMutability": "view",
            "type": "function"
        },
        {
            "inputs": [
                {
                    "internalType": "address",
                    "name": "_owner",
                    "type": "address"
                },
                {
                    "internalType": "address",
                    "name": "_spender",
                    "type": "address"
                }
            ],
            "name": "allowance",
            "outputs": [
                {
                    "internalType": "uint256",
                    "name": "",
                    "type": "uint256"
                }
            ],
            "stateMutability": "view",
            "type": "function"
        },
        {
            "inputs": [
                {
                    "internalType": "address",
                    "name": "",
                    "type": "address"
                },
                {
                    "internalType": "address",
                    "name": "",
                    "type": "address"
                }
            ],
            "name": "allowances",
            "outputs": [
                {
                    "internalType": "uint256",
                    "name": "",
                    "type": "uint256"
                }
            ],
            "stateMutability": "view",
            "type": "function"
        },
        {
            "inputs": [
                {
                    "internalType": "address",
                    "name": "_spender",
                    "type": "address"
                },
                {
                    "internalType": "uint256",
                    "name": "_amount",
                    "type": "uint256"
                }
            ],
            "name": "approve",
            "outputs": [
                {
                    "internalType": "bool",
                    "name": "",
                    "type": "bool"
                }
            ],
            "stateMutability": "nonpayable",
            "type": "function"
        },
        {
            "inputs": [
                {
                    "internalType": "address",
                    "name": "_account",
                    "type": "address"
                }
            ],
            "name": "balanceOf",
            "outputs": [
                {
                    "internalType": "uint256",
                    "name": "",
                    "type": "uint256"
                }
            ],
            "stateMutability": "view",
            "type": "function"
        },
        {
            "inputs": [
                {
                    "internalType": "address",
                    "name": "",
                    "type": "address"
                }
            ],
            "name": "balances",
            "outputs": [
                {
                    "internalType": "uint256",
                    "name": "",
                    "type": "uint256"
                }
            ],
            "stateMutability": "view",
            "type": "function"
        },
        {
            "inputs": [
                {
                    "internalType": "address",
                    "name": "_account",
                    "type": "address"
                },
                {
                    "internalType": "uint256",
                    "name": "_amount",
                    "type": "uint256"
                }
            ],
            "name": "burn",
            "outputs": [],
            "stateMutability": "nonpayable",
            "type": "function"
        },
        {
            "inputs": [
                {
                    "internalType": "address",
                    "name": "_receiver",
                    "type": "address"
                }
            ],
            "name": "claim",
            "outputs": [],
            "stateMutability": "nonpayable",
            "type": "function"
        },
        {
            "inputs": [],
            "name": "decimals",
            "outputs": [
                {
                    "internalType": "uint8",
                    "name": "",
                    "type": "uint8"
                }
            ],
            "stateMutability": "view",
            "type": "function"
        },
        {
            "inputs": [],
            "name": "gov",
            "outputs": [
                {
                    "internalType": "address",
                    "name": "",
                    "type": "address"
                }
            ],
            "stateMutability": "view",
            "type": "function"
        },
        {
            "inputs": [],
            "name": "id",
            "outputs": [
                {
                    "internalType": "string",
                    "name": "_name",
                    "type": "string"
                }
            ],
            "stateMutability": "pure",
            "type": "function"
        },
        {
            "inputs": [],
            "name": "inPrivateTransferMode",
            "outputs": [
                {
                    "internalType": "bool",
                    "name": "",
                    "type": "bool"
                }
            ],
            "stateMutability": "view",
            "type": "function"
        },
        {
            "inputs": [
                {
                    "internalType": "address",
                    "name": "",
                    "type": "address"
                }
            ],
            "name": "isHandler",
            "outputs": [
                {
                    "internalType": "bool",
                    "name": "",
                    "type": "bool"
                }
            ],
            "stateMutability": "view",
            "type": "function"
        },
        {
            "inputs": [
                {
                    "internalType": "address",
                    "name": "",
                    "type": "address"
                }
            ],
            "name": "isMinter",
            "outputs": [
                {
                    "internalType": "bool",
                    "name": "",
                    "type": "bool"
                }
            ],
            "stateMutability": "view",
            "type": "function"
        },
        {
            "inputs": [
                {
                    "internalType": "address",
                    "name": "_account",
                    "type": "address"
                },
                {
                    "internalType": "uint256",
                    "name": "_amount",
                    "type": "uint256"
                }
            ],
            "name": "mint",
            "outputs": [],
            "stateMutability": "nonpayable",
            "type": "function"
        },
        {
            "inputs": [],
            "name": "name",
            "outputs": [
                {
                    "internalType": "string",
                    "name": "",
                    "type": "string"
                }
            ],
            "stateMutability": "view",
            "type": "function"
        },
        {
            "inputs": [
                {
                    "internalType": "address",
                    "name": "",
                    "type": "address"
                }
            ],
            "name": "nonStakingAccounts",
            "outputs": [
                {
                    "internalType": "bool",
                    "name": "",
                    "type": "bool"
                }
            ],
            "stateMutability": "view",
            "type": "function"
        },
        {
            "inputs": [],
            "name": "nonStakingSupply",
            "outputs": [
                {
                    "internalType": "uint256",
                    "name": "",
                    "type": "uint256"
                }
            ],
            "stateMutability": "view",
            "type": "function"
        },
        {
            "inputs": [
                {
                    "internalType": "address",
                    "name": "_account",
                    "type": "address"
                },
                {
                    "internalType": "address",
                    "name": "_receiver",
                    "type": "address"
                }
            ],
            "name": "recoverClaim",
            "outputs": [],
            "stateMutability": "nonpayable",
            "type": "function"
        },
        {
            "inputs": [
                {
                    "internalType": "address",
                    "name": "_account",
                    "type": "address"
                }
            ],
            "name": "removeAdmin",
            "outputs": [],
            "stateMutability": "nonpayable",
            "type": "function"
        },
        {
            "inputs": [
                {
                    "internalType": "address",
                    "name": "_account",
                    "type": "address"
                }
            ],
            "name": "removeNonStakingAccount",
            "outputs": [],
            "stateMutability": "nonpayable",
            "type": "function"
        },
        {
            "inputs": [
                {
                    "internalType": "address",
                    "name": "_gov",
                    "type": "address"
                }
            ],
            "name": "setGov",
            "outputs": [],
            "stateMutability": "nonpayable",
            "type": "function"
        },
        {
            "inputs": [
                {
                    "internalType": "address",
                    "name": "_handler",
                    "type": "address"
                },
                {
                    "internalType": "bool",
                    "name": "_isActive",
                    "type": "bool"
                }
            ],
            "name": "setHandler",
            "outputs": [],
            "stateMutability": "nonpayable",
            "type": "function"
        },
        {
            "inputs": [
                {
                    "internalType": "bool",
                    "name": "_inPrivateTransferMode",
                    "type": "bool"
                }
            ],
            "name": "setInPrivateTransferMode",
            "outputs": [],
            "stateMutability": "nonpayable",
            "type": "function"
        },
        {
            "inputs": [
                {
                    "internalType": "string",
                    "name": "_name",
                    "type": "string"
                },
                {
                    "internalType": "string",
                    "name": "_symbol",
                    "type": "string"
                }
            ],
            "name": "setInfo",
            "outputs": [],
            "stateMutability": "nonpayable",
            "type": "function"
        },
        {
            "inputs": [
                {
                    "internalType": "address",
                    "name": "_minter",
                    "type": "address"
                },
                {
                    "internalType": "bool",
                    "name": "_isActive",
                    "type": "bool"
                }
            ],
            "name": "setMinter",
            "outputs": [],
            "stateMutability": "nonpayable",
            "type": "function"
        },
        {
            "inputs": [
                {
                    "internalType": "address[]",
                    "name": "_yieldTrackers",
                    "type": "address[]"
                }
            ],
            "name": "setYieldTrackers",
            "outputs": [],
            "stateMutability": "nonpayable",
            "type": "function"
        },
        {
            "inputs": [
                {
                    "internalType": "address",
                    "name": "_account",
                    "type": "address"
                }
            ],
            "name": "stakedBalance",
            "outputs": [
                {
                    "internalType": "uint256",
                    "name": "",
                    "type": "uint256"
                }
            ],
            "stateMutability": "view",
            "type": "function"
        },
        {
            "inputs": [],
            "name": "symbol",
            "outputs": [
                {
                    "internalType": "string",
                    "name": "",
                    "type": "string"
                }
            ],
            "stateMutability": "view",
            "type": "function"
        },
        {
            "inputs": [],
            "name": "totalStaked",
            "outputs": [
                {
                    "internalType": "uint256",
                    "name": "",
                    "type": "uint256"
                }
            ],
            "stateMutability": "view",
            "type": "function"
        },
        {
            "inputs": [],
            "name": "totalSupply",
            "outputs": [
                {
                    "internalType": "uint256",
                    "name": "",
                    "type": "uint256"
                }
            ],
            "stateMutability": "view",
            "type": "function"
        },
        {
            "inputs": [
                {
                    "internalType": "address",
                    "name": "_recipient",
                    "type": "address"
                },
                {
                    "internalType": "uint256",
                    "name": "_amount",
                    "type": "uint256"
                }
            ],
            "name": "transfer",
            "outputs": [
                {
                    "internalType": "bool",
                    "name": "",
                    "type": "bool"
                }
            ],
            "stateMutability": "nonpayable",
            "type": "function"
        },
        {
            "inputs": [
                {
                    "internalType": "address",
                    "name": "_sender",
                    "type": "address"
                },
                {
                    "internalType": "address",
                    "name": "_recipient",
                    "type": "address"
                },
                {
                    "internalType": "uint256",
                    "name": "_amount",
                    "type": "uint256"
                }
            ],
            "name": "transferFrom",
            "outputs": [
                {
                    "internalType": "bool",
                    "name": "",
                    "type": "bool"
                }
            ],
            "stateMutability": "nonpayable",
            "type": "function"
        },
        {
            "inputs": [
                {
                    "internalType": "address",
                    "name": "_token",
                    "type": "address"
                },
                {
                    "internalType": "address",
                    "name": "_account",
                    "type": "address"
                },
                {
                    "internalType": "uint256",
                    "name": "_amount",
                    "type": "uint256"
                }
            ],
            "name": "withdrawToken",
            "outputs": [],
            "stateMutability": "nonpayable",
            "type": "function"
        },
        {
            "inputs": [
                {
                    "internalType": "uint256",
                    "name": "",
                    "type": "uint256"
                }
            ],
            "name": "yieldTrackers",
            "outputs": [
                {
                    "internalType": "address",
                    "name": "",
                    "type": "address"
                }
            ],
            "stateMutability": "view",
            "type": "function"
        }
    ],
    "bytecode": "0x60806040523480156200001157600080fd5b506040518060400160405280600681526020016504d5658204c560d41b8152506040518060400160405280600481526020016304d564c560e41b815250600082828282600090805190602001906200006b929190620002e6565b50815162000081906001906020850190620002e6565b50600480546001600160a01b03191633908117909155620000a39082620000af565b50505050505062000382565b6001600160a01b038216620000f65760405162461bcd60e51b8152600401808060200182810382526023815260200180620025536023913960400191505060405180910390fd5b6200010182620001e5565b6200011d816002546200028460201b620014b01790919060201c565b6002556001600160a01b03821660009081526005602090815260409091205462000152918390620014b062000284821b17901c565b6001600160a01b03831660009081526005602090815260408083209390935560089052205460ff1615620001a0576200019c816003546200028460201b620014b01790919060201c565b6003555b6040805182815290516001600160a01b038416916000917fddf252ad1be2c89b69c2b068fc378daa952ba7f163c4a11628f55a4df523b3ef9181900360200190a35050565b60005b60075481101562000280576000600782815481106200020357fe5b600091825260208220015460408051635fd6196560e01b81526001600160a01b03878116600483015291519190921693508392635fd61965926024808201939182900301818387803b1580156200025957600080fd5b505af11580156200026e573d6000803e3d6000fd5b505060019093019250620001e8915050565b5050565b600082820183811015620002df576040805162461bcd60e51b815260206004820152601b60248201527f536166654d6174683a206164646974696f6e206f766572666c6f770000000000604482015290519081900360640190fd5b9392505050565b828054600181600116156101000203166002900490600052602060002090601f016020900481019282601f106200032957805160ff191683800117855562000359565b8280016001018555821562000359579182015b82811115620003595782518255916020019190600101906200033c565b50620003679291506200036b565b5090565b5b808211156200036757600081556001016200036c565b6121c180620003926000396000f3fe608060405234801561001057600080fd5b50600436106101f75760003560e01c80636228907711610120578063a9059cbb116100b8578063cf456ae71161007c578063cf456ae714610859578063cfad57a214610887578063dd62ed3e146108ad578063dfbaefb1146108db578063fb30d916146108e3576101f7565b8063a9059cbb146106ce578063a923fc40146106fa578063aa271e1a14610823578063af640d0f14610849578063c93be63614610851576101f7565b8063622890771461059e57806370480275146105c457806370a08231146105ea578063817b1cd2146106105780639554381a1461061857806395d89b411461063e578063996f11ee146106465780639cb7de4b146106745780639dc29fac146106a2576101f7565b806327e235e31161019357806327e235e314610452578063313ce5671461047857806340c10f1914610496578063429b62e5146104c257806346ea87af146104e857806352cd38d91461050e57806355b6ed5c1461052b5780635a47a1a7146105595780636021726714610578576101f7565b806301e33667146101fc57806306fdde0314610234578063095ea7b3146102b157806312d43a51146102f15780631785f53c1461031557806318160ddd1461033b5780631e83409a1461035557806323b872dd1461037b578063276eab4e146103b1575b600080fd5b6102326004803603606081101561021257600080fd5b506001600160a01b03813581169160208101359091169060400135610909565b005b61023c61096f565b6040805160208082528351818301528351919283929083019185019080838360005b8381101561027657818101518382015260200161025e565b50505050905090810190601f1680156102a35780820380516001836020036101000a031916815260200191505b509250505060405180910390f35b6102dd600480360360408110156102c757600080fd5b506001600160a01b0381351690602001356109fd565b604080519115158252519081900360200190f35b6102f9610a13565b604080516001600160a01b039092168252519081900360200190f35b6102326004803603602081101561032b57600080fd5b50356001600160a01b0316610a22565b610343610a90565b60408051918252519081900360200190f35b6102326004803603602081101561036b57600080fd5b50356001600160a01b0316610a96565b6102dd6004803603606081101561039157600080fd5b506001600160a01b03813581169160208101359091169060400135610b4d565b610232600480360360208110156103c757600080fd5b810190602081018135600160201b8111156103e157600080fd5b8201836020820111156103f357600080fd5b803590602001918460208302840111600160201b8311171561041457600080fd5b919080806020026020016040519081016040528093929190818152602001838360200280828437600092019190915250929550610be7945050505050565b6103436004803603602081101561046857600080fd5b50356001600160a01b0316610c47565b610480610c59565b6040805160ff9092168252519081900360200190f35b610232600480360360408110156104ac57600080fd5b506001600160a01b038135169060200135610c5e565b6102dd600480360360208110156104d857600080fd5b50356001600160a01b0316610ccc565b6102dd600480360360208110156104fe57600080fd5b50356001600160a01b0316610ce1565b6102f96004803603602081101561052457600080fd5b5035610cf6565b6103436004803603604081101561054157600080fd5b506001600160a01b0381358116916020013516610d1d565b6102326004803603602081101561056f57600080fd5b50351515610d3a565b6103436004803603602081101561058e57600080fd5b50356001600160a01b0316610d9a565b610232600480360360208110156105b457600080fd5b50356001600160a01b0316610de3565b610232600480360360208110156105da57600080fd5b50356001600160a01b0316610ed6565b6103436004803603602081101561060057600080fd5b50356001600160a01b0316610f47565b610343610f62565b6102dd6004803603602081101561062e57600080fd5b50356001600160a01b0316610f80565b61023c610f95565b6102326004803603604081101561065c57600080fd5b506001600160a01b0381358116916020013516610fef565b6102326004803603604081101561068a57600080fd5b506001600160a01b03813516906020013515156110f6565b610232600480360360408110156106b857600080fd5b506001600160a01b03813516906020013561116e565b6102dd600480360360408110156106e457600080fd5b506001600160a01b0381351690602001356111dc565b6102326004803603604081101561071057600080fd5b810190602081018135600160201b81111561072a57600080fd5b82018360208201111561073c57600080fd5b803590602001918460018302840111600160201b8311171561075d57600080fd5b91908080601f0160208091040260200160405190810160405280939291908181526020018383808284376000920191909152509295949360208101935035915050600160201b8111156107af57600080fd5b8201836020820111156107c157600080fd5b803590602001918460018302840111600160201b831117156107e257600080fd5b91908080601f0160208091040260200160405190810160405280939291908181526020018383808284376000920191909152509295506111e9945050505050565b6102dd6004803603602081101561083957600080fd5b50356001600160a01b031661125d565b61023c611272565b610343611290565b6102326004803603604081101561086f57600080fd5b506001600160a01b0381351690602001351515611296565b6102326004803603602081101561089d57600080fd5b50356001600160a01b031661130e565b610343600480360360408110156108c357600080fd5b506001600160a01b038135811691602001351661137d565b6102dd6113a8565b610232600480360360208110156108f957600080fd5b50356001600160a01b03166113b1565b6004546001600160a01b03163314610956576040805162461bcd60e51b81526020600482015260146024820152600080516020612063833981519152604482015290519081900360640190fd5b61096a6001600160a01b038416838361150a565b505050565b6000805460408051602060026001851615610100026000190190941693909304601f810184900484028201840190925281815292918301828280156109f55780601f106109ca576101008083540402835291602001916109f5565b820191906000526020600020905b8154815290600101906020018083116109d857829003601f168201915b505050505081565b6000610a0a33848461155c565b50600192915050565b6004546001600160a01b031681565b6004546001600160a01b03163314610a6f576040805162461bcd60e51b81526020600482015260146024820152600080516020612063833981519152604482015290519081900360640190fd5b6001600160a01b03166000908152600960205260409020805460ff19169055565b60025481565b60005b600754811015610b4957600060078281548110610ab257fe5b6000918252602080832090910154604080516310e059a160e11b81523360048201526001600160a01b038881166024830152915191909216945084936321c0b34293604480850194919392918390030190829087803b158015610b1457600080fd5b505af1158015610b28573d6000803e3d6000fd5b505050506040513d6020811015610b3e57600080fd5b505050600101610a99565b5050565b336000908152600b602052604081205460ff1615610b7857610b70848484611648565b506001610be0565b6000610bc2836040518060600160405280602c8152602001612011602c91396001600160a01b0388166000908152600660209081526040808320338452909152902054919061185e565b9050610bcf85338361155c565b610bda858585611648565b60019150505b9392505050565b6004546001600160a01b03163314610c34576040805162461bcd60e51b81526020600482015260146024820152600080516020612063833981519152604482015290519081900360640190fd5b8051610b49906007906020840190611e68565b60056020526000908152604090205481565b601281565b336000908152600c602052604090205460ff16610cc2576040805162461bcd60e51b815260206004820152601c60248201527f4d696e7461626c6542617365546f6b656e3a20666f7262696464656e00000000604482015290519081900360640190fd5b610b4982826118f5565b60096020526000908152604090205460ff1681565b600b6020526000908152604090205460ff1681565b60078181548110610d0357fe5b6000918252602090912001546001600160a01b0316905081565b600660209081526000928352604080842090915290825290205481565b6004546001600160a01b03163314610d87576040805162461bcd60e51b81526020600482015260146024820152600080516020612063833981519152604482015290519081900360640190fd5b600a805460ff1916911515919091179055565b6001600160a01b03811660009081526008602052604081205460ff1615610dc357506000610dde565b506001600160a01b0381166000908152600560205260409020545b919050565b3360009081526009602052604090205460ff16610e35576040805162461bcd60e51b81526020600482015260146024820152600080516020612063833981519152604482015290519081900360640190fd5b6001600160a01b03811660009081526008602052604090205460ff1615610e8d5760405162461bcd60e51b81526004018080602001828103825260228152602001806120f56022913960400191505060405180910390fd5b610e96816119e7565b6001600160a01b0381166000908152600860209081526040808320805460ff191660011790556005909152902054600354610ed0916114b0565b60035550565b6004546001600160a01b03163314610f23576040805162461bcd60e51b81526020600482015260146024820152600080516020612063833981519152604482015290519081900360640190fd5b6001600160a01b03166000908152600960205260409020805460ff19166001179055565b6001600160a01b031660009081526005602052604090205490565b6000610f7b600354600254611a7d90919063ffffffff16565b905090565b60086020526000908152604090205460ff1681565b60018054604080516020600284861615610100026000190190941693909304601f810184900484028201840190925281815292918301828280156109f55780601f106109ca576101008083540402835291602001916109f5565b3360009081526009602052604090205460ff16611041576040805162461bcd60e51b81526020600482015260146024820152600080516020612063833981519152604482015290519081900360640190fd5b60005b60075481101561096a5760006007828154811061105d57fe5b6000918252602080832090910154604080516310e059a160e11b81526001600160a01b0389811660048301528881166024830152915191909216945084936321c0b34293604480850194919392918390030190829087803b1580156110c157600080fd5b505af11580156110d5573d6000803e3d6000fd5b505050506040513d60208110156110eb57600080fd5b505050600101611044565b6004546001600160a01b03163314611143576040805162461bcd60e51b81526020600482015260146024820152600080516020612063833981519152604482015290519081900360640190fd5b6001600160a01b03919091166000908152600b60205260409020805460ff1916911515919091179055565b336000908152600c602052604090205460ff166111d2576040805162461bcd60e51b815260206004820152601c60248201527f4d696e7461626c6542617365546f6b656e3a20666f7262696464656e00000000604482015290519081900360640190fd5b610b498282611abf565b6000610a0a338484611648565b6004546001600160a01b03163314611236576040805162461bcd60e51b81526020600482015260146024820152600080516020612063833981519152604482015290519081900360640190fd5b8151611249906000906020850190611ecd565b50805161096a906001906020840190611ecd565b600c6020526000908152604090205460ff1681565b60408051808201909152600481526304d564c560e41b602082015290565b60035481565b6004546001600160a01b031633146112e3576040805162461bcd60e51b81526020600482015260146024820152600080516020612063833981519152604482015290519081900360640190fd5b6001600160a01b03919091166000908152600c60205260409020805460ff1916911515919091179055565b6004546001600160a01b0316331461135b576040805162461bcd60e51b81526020600482015260146024820152600080516020612063833981519152604482015290519081900360640190fd5b600480546001600160a01b0319166001600160a01b0392909216919091179055565b6001600160a01b03918216600090815260066020908152604080832093909416825291909152205490565b600a5460ff1681565b3360009081526009602052604090205460ff16611403576040805162461bcd60e51b81526020600482015260146024820152600080516020612063833981519152604482015290519081900360640190fd5b6001600160a01b03811660009081526008602052604090205460ff16611470576040805162461bcd60e51b815260206004820152601e60248201527f42617365546f6b656e3a205f6163636f756e74206e6f74206d61726b65640000604482015290519081900360640190fd5b611479816119e7565b6001600160a01b0381166000908152600860209081526040808320805460ff191690556005909152902054600354610ed091611a7d565b600082820183811015610be0576040805162461bcd60e51b815260206004820152601b60248201527f536166654d6174683a206164646974696f6e206f766572666c6f770000000000604482015290519081900360640190fd5b604080516001600160a01b038416602482015260448082018490528251808303909101815260649091019091526020810180516001600160e01b031663a9059cbb60e01b17905261096a908490611bd8565b6001600160a01b0383166115a15760405162461bcd60e51b81526004018080602001828103825260288152602001806120836028913960400191505060405180910390fd5b6001600160a01b0382166115e65760405162461bcd60e51b8152600401808060200182810382526026815260200180611feb6026913960400191505060405180910390fd5b6001600160a01b03808416600081815260066020908152604080832094871680845294825291829020859055815185815291517f8c5be1e5ebec7d5bd14f71427d1e84f3dd0314c0f7b2291e5b200ac8c7c3b9259281900390910190a3505050565b6001600160a01b03831661168d5760405162461bcd60e51b815260040180806020018281038252602981526020018061218c6029913960400191505060405180910390fd5b6001600160a01b0382166116d25760405162461bcd60e51b8152600401808060200182810382526027815260200180611fa16027913960400191505060405180910390fd5b600a5460ff161561172b57336000908152600b602052604090205460ff1661172b5760405162461bcd60e51b8152600401808060200182810382526025815260200180611f7c6025913960400191505060405180910390fd5b611734836119e7565b61173d826119e7565b61177a816040518060600160405280602a81526020016120ab602a91396001600160a01b038616600090815260056020526040902054919061185e565b6001600160a01b0380851660009081526005602052604080822093909355908416815220546117a990826114b0565b6001600160a01b0380841660009081526005602090815260408083209490945591861681526008909152205460ff16156117ee576003546117ea9082611a7d565b6003555b6001600160a01b03821660009081526008602052604090205460ff16156118205760035461181c90826114b0565b6003555b816001600160a01b0316836001600160a01b03166000805160206120d5833981519152836040518082815260200191505060405180910390a3505050565b600081848411156118ed5760405162461bcd60e51b81526004018080602001828103825283818151815260200191508051906020019080838360005b838110156118b257818101518382015260200161189a565b50505050905090810190601f1680156118df5780820380516001836020036101000a031916815260200191505b509250505060405180910390fd5b505050900390565b6001600160a01b03821661193a5760405162461bcd60e51b8152600401808060200182810382526023815260200180611fc86023913960400191505060405180910390fd5b611943826119e7565b60025461195090826114b0565b6002556001600160a01b03821660009081526005602052604090205461197690826114b0565b6001600160a01b03831660009081526005602090815260408083209390935560089052205460ff16156119b4576003546119b090826114b0565b6003555b6040805182815290516001600160a01b038416916000916000805160206120d58339815191529181900360200190a35050565b60005b600754811015610b4957600060078281548110611a0357fe5b600091825260208220015460408051635fd6196560e01b81526001600160a01b03878116600483015291519190921693508392635fd61965926024808201939182900301818387803b158015611a5857600080fd5b505af1158015611a6c573d6000803e3d6000fd5b5050600190930192506119ea915050565b6000610be083836040518060400160405280601e81526020017f536166654d6174683a207375627472616374696f6e206f766572666c6f77000081525061185e565b6001600160a01b038216611b045760405162461bcd60e51b81526004018080602001828103825260258152602001806121676025913960400191505060405180910390fd5b611b0d826119e7565b611b4a81604051806060016040528060268152602001612117602691396001600160a01b038516600090815260056020526040902054919061185e565b6001600160a01b038316600090815260056020526040902055600254611b709082611a7d565b6002556001600160a01b03821660009081526008602052604090205460ff1615611ba557600354611ba19082611a7d565b6003555b6040805182815290516000916001600160a01b038516916000805160206120d58339815191529181900360200190a35050565b6060611c2d826040518060400160405280602081526020017f5361666545524332303a206c6f772d6c6576656c2063616c6c206661696c6564815250856001600160a01b0316611c899092919063ffffffff16565b80519091501561096a57808060200190516020811015611c4c57600080fd5b505161096a5760405162461bcd60e51b815260040180806020018281038252602a81526020018061213d602a913960400191505060405180910390fd5b6060611c988484600085611ca0565b949350505050565b606082471015611ce15760405162461bcd60e51b815260040180806020018281038252602681526020018061203d6026913960400191505060405180910390fd5b611cea85611dfc565b611d3b576040805162461bcd60e51b815260206004820152601d60248201527f416464726573733a2063616c6c20746f206e6f6e2d636f6e7472616374000000604482015290519081900360640190fd5b60006060866001600160a01b031685876040518082805190602001908083835b60208310611d7a5780518252601f199092019160209182019101611d5b565b6001836020036101000a03801982511681845116808217855250505050505090500191505060006040518083038185875af1925050503d8060008114611ddc576040519150601f19603f3d011682016040523d82523d6000602084013e611de1565b606091505b5091509150611df1828286611e02565b979650505050505050565b3b151590565b60608315611e11575081610be0565b825115611e215782518084602001fd5b60405162461bcd60e51b81526020600482018181528451602484015284518593919283926044019190850190808383600083156118b257818101518382015260200161189a565b828054828255906000526020600020908101928215611ebd579160200282015b82811115611ebd57825182546001600160a01b0319166001600160a01b03909116178255602090920191600190910190611e88565b50611ec9929150611f47565b5090565b828054600181600116156101000203166002900490600052602060002090601f016020900481019282601f10611f0e57805160ff1916838001178555611f3b565b82800160010185558215611f3b579182015b82811115611f3b578251825591602001919060010190611f20565b50611ec9929150611f66565b5b80821115611ec95780546001600160a01b0319168155600101611f48565b5b80821115611ec95760008155600101611f6756fe42617365546f6b656e3a206d73672e73656e646572206e6f742077686974656c697374656442617365546f6b656e3a207472616e7366657220746f20746865207a65726f206164647265737342617365546f6b656e3a206d696e7420746f20746865207a65726f206164647265737342617365546f6b656e3a20617070726f766520746f20746865207a65726f206164647265737342617365546f6b656e3a207472616e7366657220616d6f756e74206578636565647320616c6c6f77616e6365416464726573733a20696e73756666696369656e742062616c616e636520666f722063616c6c42617365546f6b656e3a20666f7262696464656e00000000000000000000000042617365546f6b656e3a20617070726f76652066726f6d20746865207a65726f206164647265737342617365546f6b656e3a207472616e7366657220616d6f756e7420657863656564732062616c616e6365ddf252ad1be2c89b69c2b068fc378daa952ba7f163c4a11628f55a4df523b3ef42617365546f6b656e3a205f6163636f756e7420616c7265616479206d61726b656442617365546f6b656e3a206275726e20616d6f756e7420657863656564732062616c616e63655361666545524332303a204552433230206f7065726174696f6e20646964206e6f74207375636365656442617365546f6b656e3a206275726e2066726f6d20746865207a65726f206164647265737342617365546f6b656e3a207472616e736665722066726f6d20746865207a65726f2061646472657373a164736f6c634300060c000a42617365546f6b656e3a206d696e7420746f20746865207a65726f2061646472657373",
    "linkReferences": {},
    "deployedLinkReferences": {}
}